:100000004BC0B7C164C063C062C061C060C05FC0A4
:100010005EC05DC05CC05BC05AC059C058C057C00C
:1000200056C055C054C053C052C051C050C04FC03C
:100030004EC04DC009021200010100A019090400C0
:1000400000000000000012010002FF000008C016BE
:10005000DC0504010102000112034D0053004600BB
:1000600054003100300030007E000E035500530074
:1000700042006100730070001C0377007700770076
:100080002E00660069007300630068006C002E009B
:10009000640065000403090411241FBECFEFD4E0FF
:1000A000DEBFCDBF11E0A0E0B1E0ECE0F2E102C0C4
:1000B00005900D92AA32B107D9F721E0AAE2B1E08A
:1000C00001C01D92A237B207E1F78DD89DC898CF25
:1000D000CF93DF9360915001635067FD14C020916E
:1000E0004D018CE090E0821B9109EC01CC5ADE4F6F
:1000F00080914C018D3209F455C080914B0187FDF0
:1001000097C0109250018091010184FF3EC0609120
:1001100000016F3FD1F1693008F46CC06850609302
:10012000000190913F0188E8892780933F0168E0B2
:1001300080914B0187FD1CC020914E0130914F01F1
:1001400086FF6DC0A0E4B1E0F901962F84918D93F4
:1001500031969150D9F78FEF860F90E00196280FD6
:10016000391F30934F0120934E01C4E0C60F4DC09C
:1001700080E491E0E6D6682F893008F49FC08FEFC5
:1001800080930001CEE1C093010194E183B18370BB
:1001900031F49150D9F71092510110924A01DF9138
:1001A000CF910895683009F0ACCF83EC80933F0184
:1001B0008AE58093010110924B018881807609F0D5
:1001C00041C08A81109248019981911146C01092D4
:1001D000490128E431E082E030934F0120934E0141
:1001E0009F81911104C09E81981708F4892F8093F4
:1001F000000187CF1092000190913F0188E8892784
:1002000080933F01611194CFC4E080E491E0ADD0D0
:10021000CC3009F4B8CF8FEF80930001B4CFD9016F
:10022000E0E4F1E0962F8D9181939150E1F793CF27
:10023000CE0107D78F3F01F1882309F462CF1092D6
:1002400000015FCFCE01ADD48F3F51F6988197FD6D
:100250001DC090E890934B01CACF953089F096303D
:1002600009F19830D9F0993099F081E09A3009F08D
:1002700080E028E431E0B0CF8EE18093010141CFEE
:100280008093510128E431E080E0A6CF8E81E1CF58
:100290008093530128E431E080E09ECF23E531E0F4
:1002A00081E09ACF9B819130F1F09230A1F09330B0
:1002B00041F080E090E490934B0192CFC4E0C80FEE
:1002C000A4CF811118C084E990E090934F018093EE
:1002D0004E0184E0EFCF84E390E090934F01809350
:1002E0004E0182E1E7CF86E490E090934F01809346
:1002F0004E0182E1DFCF813061F0823091F08E3E9D
:10030000C1F688E590E090934F0180934E0182E121
:10031000D1CF88E790E090934F0180934E018CE11C
:10032000C9CF8AE690E090934F0180934E018EE012
:10033000C1CFE9E6F0E0808182608083E89A089589
:10034000A82FB92F80E090E041E050EA609530E0BE
:1003500009C02D9182279795879510F084279527BE
:10036000305EC8F36F5FA8F30895EADF8D939D9325
:100370000895CF93CFB7CF93C395189BE9F7189BF8
:1003800009C0189B07C0189B05C0189B03C0189B89
:1003900001C0A1C0DF93C0914D01DD27CC5ADE4FD3
:1003A000189B02C0DF91EBCF2F930F931F9303B1E4
:1003B0002FEF00FB20F94F933F9313B14FEF01272D
:1003C00000FB21F93BE031C04E7F012F13B12160CA
:1003D00028C0102F4D7F2260000003B129C04B7F41
:1003E0002460012F000013B12BC013B1477F286098
:1003F0002AC04F7E03B120612CC04F7D13B1206213
:100400002FC04F7B03B1206432C0422703B1499310
:100410004FEF0000102710FB20F913B11370C9F142
:10042000297F91F2012700FB21F903B1237F89F293
:10043000315058F1102710FB22F913B1277E79F2C1
:10044000012700FB23F92F7C81F203B1102710FB59
:1004500024F92F7971F200C013B1012700FB25F9AF
:100460002F7359F200C003B1102710FB26F9223078
:1004700040F200C013B1012700FB27F9243028F611
:100480004F77206813B10000F9CF11E01CBB0027A3
:1004900017C03B503195C31BD04011E01CBB0881F5
:1004A000033CE9F00B34D9F020914A011981110F76
:1004B0001213EDCF093641F10D3211F0013E39F73B
:1004C000009352013F914F911F910F912F91DF9116
:1004D000CCB3C0FD51CFCF91CFBFCF911895209114
:1004E0005201222379F310915001112311F5343078
:1004F00012F13093500120934C0110914D013BE0DB
:10050000311B30934D0117C00091500101308CF424
:100510000AE53091010134FD10C000930101CFE3E1
:10052000D1E00FC02795A8F45150A9F4220F000084
:10053000F9CF4AE503C042ED01C0432FC4E1D0E04A
:1005400032E014B11360289A14B905B120E413E025
:100550005F93012756E005B9279520F4515021F407
:10056000220FF9CF012756E000003B5A05B9D0F21F
:10057000279528F4515029F4220F0000F9CF0127C4
:1005800056E0279505B920F4515021F4220FF9CFF8
:10059000012756E02991332305B921F60C7F1091EC
:1005A0005101110FC651D04005B911F010934A0105
:1005B00011E01CBB016014B11C7F402F4C7F5F9188
:1005C00000C000C005B914B945B97CCF582F48E028
:1005D00080E057FD18C02B98550F880F1C998F5F2E
:1005E0002D9A36B520916F0196B5931B9217E0F3C3
:1005F0002D9836B520916F0196B5931B9217E0F3B5
:10060000415039F708952B9AE7CF8EBD0DB407FE00
:10061000FDCF8EB50895DC01CB0121E1B695A795FC
:10062000979587952A95D1F720916E012817D9F0D3
:1006300080936E01E0916B01F0916C018DE409955E
:10064000E0916B01F0916C0180E00995E0916B0104
:10065000F0916C0180916E010995E0916B01F09130
:100660006C0180E00994089580916D018CBD8091AA
:100670006A018DBD08958823A1F08830D0F526EE5B
:1006800032E030936C0120936B018430F1F008F17B
:100690008630C1F030F18730A1F483E080936F01A0
:1006A000089585E093E090936C0180936B0181E065
:1006B00080936F0182E580936D0181E080936A01F0
:1006C000089580EC80936F01089588E180936F0115
:1006D0000895823051F08330A1F780E380936F0159
:1006E00008958CE080936F01089580E680936F01F8
:1006F000089525E033E030936C0120936B01109254
:100700006A0191E090936F01893059F070F08B305D
:1007100021F08C3079F690936A0181E580936D0128
:10072000089582E580936D010895883019F683E578
:1007300080936D01089526B590916F0186B5821B57
:100740008917E0F3089584B18C6284B92A982D98B2
:1007500026B590916F0186B5821B8917E0F32A9A1E
:1007600026B590916F0186B5821B8917E0F32A9810
:1007700080916B0190916C018550934019F010921B
:100780006E01089580916D018CBD80916A018DBDCF
:1007900010926E01089584B1837D84B985B1837D03
:1007A00085B91CBC0895CF93DF93C0E2E0916B0143
:1007B000F0916C018CEA0995E0916B01F0916C016C
:1007C00083E50995E0916B01F0916C0180E009955A
:1007D000D82FE0916B01F0916C0180E00995D33541
:1007E00061F11CBC26B590916F0186B5821B8917FB
:1007F000E0F32A9A26B590916F0186B5821B89177E
:10080000E0F32A9826B590916F0186B5821B89176F
:10081000E0F380916B0190916C018550934031F031
:10082000C15021F681E0DF91CF91089580916D0153
:100830008CBD80916A018DBDF3CF80E0DF91CF91B7
:100840000895CF92DF92EF92FF926B017C01E3DE7D
:100850008C2D8170880F880F880FE0916B01F091CB
:100860006C0180620995D701C60129E0B695A7956C
:10087000979587952A95D1F7E0916B01F0916C01DE
:100880000995D701C601B695A79597958795E091EB
:100890006B01F0916C010995E0916B01F0916C0195
:1008A00080E0FF90EF90DF90CF900994CF92DF929D
:1008B000EF92FF920F931F93CF93DF931F92CDB7C9
:1008C000DEB76B017C01142F2983A5DE9C2D91706E
:1008D000892F880F880F880FE0916B01F0916C01D0
:1008E00080640995D701C60129E0B695A79597952B
:1008F00087952A95D1F7E0916B01F0916C010995EC
:10090000D701C601B695A79597958795E0916B019C
:10091000F0916C010995E0916B01F0916C01812FD0
:10092000099529812223A9F01F3789F006B51EE118
:10093000C701B60186DF8F3761F486B5801B8D3322
:1009400010F006B511501111F3CF81E003C08FE014
:10095000B3D080E00F90DF91CF911F910F91FF9066
:10096000EF90DF90CF900895CF92DF92EF92FF92B9
:100970000F931F93CF93DF931F92CDB7DEB76B0119
:100980007C01498348DEE0916B01F0916C018CE4BD
:100990000995D701C60129E0B695A7959795879542
:1009A0002A95D1F7E0916B01F0916C010995D7017F
:1009B000C601B695A79597958795E0916B01F09143
:1009C0006C010995E0916B01F0916C0180E0099553
:1009D00049814F3FE1F006B51EE1C701B60131DFA5
:1009E0008F3F99F486B5801B8D3310F006B51150FA
:1009F0001111F3CF81E00F90DF91CF911F910F91F3
:100A0000FF90EF90DF90CF90089580E0F4CF8FE0DB
:100A100053D080E0F0CF1F93CF93DF931F92CDB7D9
:100A2000DEB7182FE0916B01F0916C0180EA998399
:100A30000995E0916B01F0916C019981892F0995DD
:100A4000E0916B01F0916C01812F0995E0916B01B0
:100A5000F0916C0180E00F90DF91CF911F9109948C
:100A60001F93CF93DF9300D0CDB7DEB7182FE0915F
:100A70006B01F0916C0180EC6A8399830995E09198
:100A80006B01F0916C019981892F0995E0916B01BF
:100A9000F0916C01812F0995E0916B01F0916C014F
:100AA0006A81862F09958EE107D080E00F900F9024
:100AB000DF91CF911F910895882349F030E026B54A
:100AC00096B5921B9C33E0F33F5F3813F8CF08953F
:100AD000259A23982B9A50E217D05A95E9F7089552
:100AE000AC0188E605D0842F03D089E601D0852F9C
:100AF0000FD028E030E0382780FB869506D02A9575
:100B0000D1F730FB02D000D0689423982B9A16F0CE
:100B10002B98239AE0917001F09171013197F0F7D1
:100B20002D9AE3B1E3FBE0917001F09171013197EF
:100B3000F0F72D98089520ECE7DF46F42A95E1F7C9
:100B400080E02AE1E5DF2A95E9F7DECF28E030E012
:100B5000DBDF869587F938272A95D1F7D5DF27F986
:100B6000322772F3D1DFD0CFDB01742FB9DF84E2FB
:100B7000BFDFE1DF8D937A95D1F70895DB01742F04
:100B8000AFDF83EFB5DF8DE1B3DF84E6B1DF8D91B9
:100B9000AFDF82E7ADDFCFDF8078D9F77A9589F7CD
:100BA0000895CF93DF93EC0199819130A1F19230B8
:100BB00009F4CBC0933009F4CCC09430B1F1973034
:100BC00009F49EC0953009F426C1963009F45EC040
:100BD000983009F4F5C0993009F422C19A3009F42B
:100BE00030C19B3009F455C19C3009F4D4C09D300C
:100BF00009F485C19E3009F487C19F3009F428C1EA
:100C0000903109F45BC19F3709F482C19E3709F422
:100C10008AC180E02EC0329935C085E02CDD10926B
:100C20003401419890DD80E024C08091340181112D
:100C300012C08B8190E0982F88272A81822B092E61
:100C4000000CAA0BBB0B8093300190933101A09351
:100C50003201B09333018F8190E0982F88272E8145
:100C6000822B90932F0180932E0182E08093360196
:100C70008FEF27E331E030934F0120934E01DF9156
:100C8000CF91089580913501F6DCC9CF8091340170
:100C9000811112C08B8190E0982F88272A81822BA6
:100CA000092E000CAA0BBB0B8093300190933101ED
:100CB000A0933201B09333013C812D81822F8F703C
:100CC00080932B01822F807F40E1849FC0011124FB
:100CD000830F911D90932D0180932C0120FD809313
:100CE0002A018F8190E0982F88272E81822B909364
:100CF0002F0180932E0181E0809336018FEFB9CFD1
:100D000080913401811112C08B8190E0982F882747
:100D10002A81822B092E000CAA0BBB0B8093300179
:100D200090933101A0933201B09333018F8190E011
:100D3000982F88272E81822B90932F0180932E014C
:100D400083E0809336018FEF94CF25DD419A80E0D8
:100D500090CFE0916B01F0916C018A8109958093AD
:100D60003701E0916B01F0916C018B8109958093C3
:100D70003801E0916B01F0916C018C8109958093B1
:100D80003901E0916B01F0916C018D81099580939F
:100D90003A0184E06ECF80ECABDE80E0A9DE8AE031
:100DA0008BDE2A9A85E088DE2A9885E085DE84B18C
:100DB000837D84B985B1837D85B9419A80E059CF1F
:100DC00080913401811112C08B8190E0982F882787
:100DD0002A81822B092E000CAA0BBB0B80933001B9
:100DE00090933101A0933201B093330110922D0101
:100DF00010922C0110922B018F8190E0982F882760
:100E00002E81822B90932F0180932E0184E080937A
:100E100036018FEF2ECFC7DC8093370181E029CFD9
:100E200081E0809334018A819B81AC81BD81809374
:100E3000300190933101A0933201B093330180E0EF
:100E400018CF8A81809335011092370181E011CF4C
:100E50008B8190E0982F88272A81822B092E000C05
:100E6000AA0BBB0B8093300190933101A093320108
:100E7000B09333018F8190E0982F88272E81822BA9
:100E800090932F0180932E0185E0809336018FEFA0
:100E9000F0CE8B8190E0982F88272A81822B909327
:100EA0007101809370012A9A229A83E005DE2A98C4
:100EB000419880E101DE0CDE80E0DBCE8B8190E0AA
:100EC000982F88272A81822B092E000CAA0BBB0B96
:100ED0008093300190933101A0933201B09333019C
:100EE0008F8190E0982F88272E81822B90932F015D
:100EF00080932E0186E0809336018FEFBACE1BDE01
:100F00008093370181E0B5CE8A81F2DD80E0B1CEF9
:100F100081E08093370110923801109239011092CC
:100F20003A0184E0A6CE8C819D81049711F080E087
:100F3000A6CE82E091E090934F0180934E0188E22B
:100F40009ECEFF920F931F93CF93DF93582F792F4D
:100F5000F62E209136013EEF320F323050F0253020
:100F600009F452C08FEFDF91CF911F910F91FF9045
:100F70000895662309F43FC08091300190913101BA
:100F8000A0913201B0913301052F172F3FEF360F9B
:100F9000E801C30FD11D1DC03EDDF80180838091A3
:100FA000300190913101A0913201B091330101964D
:100FB000A11DB11D8093300190933101A0933201A6
:100FC000B09333010C171D0761F0209136010F5FBC
:100FD0001F4F223009F7BC01CD0133DCF8018083BB
:100FE000DECFF7E0FF1538F48F2DDF91CF911F9101
:100FF0000F91FF900895109236018F2DDF91CF91C0
:101000001F910F91FF900895462F682F8091300116
:1010100090913101A9DD8091300190913101A09131
:101020003201B09133018F0D911DA11DB11D80932F
:10103000300190933101A0933201B09333018F2D91
:1010400092CFFF920F931F93CF93DF93382F792F77
:10105000162F20913601213061F0243051F02630D6
:1010600009F494C08FEFDF91CF911F910F91FF9002
:101070000895112309F482C08091300190913101CB
:10108000A0913201B0913301C32FD72F1150AE017F
:10109000410F511D8A01F12C4DC020912C0130913E
:1010A0002D01232B09F04FC021E04881BC01CD0167
:1010B000FDDB20912E0130912F0121503109309319
:1010C0002F0120932E01232BE1F410923601809101
:1010D0002B0181FF35C080912A0190E020912C01E5
:1010E00030912D018217930759F160913001709171
:1010F00031018091320190913301488135DCFF2428
:10110000F3948091300190913101A0913201B0911E
:1011100033010196A11DB11D8093300190933101DF
:10112000A0933201B0933301C017D10741F1209150
:1011300036012196213009F4B0CF688191DCB9CF16
:10114000FF24F394DECF20E04881BC01CD01AEDB6B
:1011500080912A01815080932A018111AACF609148
:1011600030017091310180913201909133014881B9
:10117000FBDB80912C0180932A019BCFF12C8F2DDA
:10118000DF91CF911F910F91FF900895462F682F07
:101190008091300190913101F1DC8091300190918A
:1011A0003101A0913201B0913301810F911DA11D38
:1011B000B11D8093300190933101A0933201B0931F
:1011C000330180912E0190912F01811B9109909301
:1011D0002F0180932E01892B21F41092360181E09A
:1011E00042CF80E040CF1BB815B88BEF8AB98FEFA4
:1011F00084B914B883E087B99EEF98B985BD99D8B2
:0C120000789466D765D7FDCFF894FFCF37
:10120C00FF5A28000000000104000100000000004B
:10121C000000000157494E555342000000000000E9
:0A122C0000000000000000000000B8
:00000001FF
