:1000000044C0B0C15DC05CC05BC05AC059C058C0DC
:1000100057C056C055C054C053C052C051C050C044
:100020004FC04EC04DC009021200010100A01909C5
:10003000040000000000000012010002FF000008A0
:10004000C016DC0504010102000112034D0053003B
:10005000460054003100300030007E000E03550091
:10006000530042006100730070001C0377007700AA
:1000700077002E00660069007300630068006C0062
:100080002E00640065000403090411241FBECFE59F
:10009000D4E0DEBFCDBF10E0A0E6B0E0ECEFF1E1D0
:1000A00002C005900D92AA38B107D9F720E0AAE85E
:1000B000B0E001C01D92A23DB207E1F78CD89CC808
:1000C0009FCFCF93DF936091B000635067FD14C062
:1000D0002091AD008CE090E0821B9109EC01CC54A2
:1000E000DF4F8091AC008D3209F455C08091AB0098
:1000F00087FD97C01092B0008091610084FF3EC0E0
:10010000609160006F3FD1F1693008F46CC06850B5
:100110006093600090919F0088E8892780939F00FA
:1001200068E08091AB0087FD1CC02091AE0030914B
:10013000AF0086FF6DC0A0EAB0E0F901962F849170
:100140008D9331969150D9F78FEF860F90E00196FD
:10015000280F391F3093AF002093AE00C4E0C60FC4
:100160004DC080EA90E0E5D6682F893008F49FC042
:100170008FEF80936000CEE1C093610094E186B37D
:10018000837031F49150D9F71092B1001092AA0007
:10019000DF91CF910895683009F0ACCF83EC809364
:1001A0009F008AE5809361001092AB008881807681
:1001B00009F041C08A811092A8009981911146C02E
:1001C0001092A90028EA30E082E03093AF0020933B
:1001D000AE009F81911104C09E81981708F4892F69
:1001E0008093600087CF1092600090919F0088E814
:1001F000892780939F00611194CFC4E080EA90E04A
:10020000ADD0CC3009F4B8CF8FEF80936000B4CF7D
:10021000D901E0EAF0E0962F8D9181939150E1F7BA
:1002200093CFCE0106D78F3F01F1882309F462CF27
:10023000109260005FCFCE01ACD48F3F51F6988111
:1002400097FD1DC090E89093AB00CACF953089F020
:10025000963009F19830D9F0993099F081E09A30D0
:1002600009F080E028EA30E0B0CF8EE180936100B1
:1002700041CF8093B10028EA30E080E0A6CF8E81A4
:10028000E1CF8093B30028EA30E080E09ECF23EBFB
:1002900030E081E09ACF9B819130F1F09230A1F073
:1002A000933041F080E090E49093AB0092CFC4E0B3
:1002B000C80FA4CF811118C086E890E09093AF00DA
:1002C0008093AE0084E0EFCF86E290E09093AF00A1
:1002D0008093AE0082E1E7CF88E390E09093AF0097
:1002E0008093AE0082E1DFCF813061F0823091F007
:1002F0008E3EC1F68AE490E09093AF008093AE000A
:1003000082E1D1CF8AE690E09093AF008093AE0077
:100310008CE1C9CF8CE590E09093AF008093AE0064
:100320008EE0C1CF85B7826085BF8BB780648BBFFD
:100330000895A82FB92F80E090E041E050EA609541
:1003400030E009C02D9182279795879510F084277A
:100350009527305EC8F36F5FA8F30895EADF8D93A9
:100360009D930895CF93CFB7CF93C395B09BE9F7F3
:10037000B09B09C0B09B07C0B09B05C0B09B03C039
:10038000B09B01C0A1C0DF93C091AD00DD27CC546C
:10039000DF4FB09B02C0DF91EBCF2F930F931F93E2
:1003A00006B32FEF00FB20F94F933F9316B34FEFA7
:1003B000012700FB21F93BE031C04E7F012F16B32E
:1003C000216028C0102F4D7F2260000006B329C095
:1003D0004B7F2460012F000016B32BC016B3477F5C
:1003E00028602AC04F7E06B320612CC04F7D16B313
:1003F00020622FC04F7B06B3206432C0422706B371
:1004000049934FEF0000102710FB20F916B313702B
:10041000C9F1297F91F2012700FB21F906B3237F5F
:1004200089F2315058F1102710FB22F916B3277EBC
:1004300079F2012700FB23F92F7C81F206B3102704
:1004400010FB24F92F7971F200C016B3012700FBCD
:1004500025F92F7359F200C006B3102710FB26F9B7
:10046000223040F200C016B3012700FB27F92430E8
:1004700028F64F77206816B30000F9CF10E41ABFB2
:10048000002717C03B503195C31BD04010E41ABF62
:100490000881033CE9F00B34D9F02091AA001981BE
:1004A000110F1213EDCF093641F10D3211F0013E5B
:1004B00039F70093B2003F914F911F910F912F9107
:1004C000DF91CAB7C6FD51CFCF91CFBFCF9118955D
:1004D0002091B200222379F31091B000112311F57D
:1004E000343012F13093B0002093AC001091AD0085
:1004F0003BE0311B3093AD0017C00091B0000130DC
:100500008CF40AE53091610034FD10C00093610065
:10051000CFE9D0E00FC02795A8F45150A9F4220FDD
:100520000000F9CF4AE503C042ED01C0432FC4E10A
:10053000D0E032E017B31360C09A17BB08B320E4D1
:1005400013E05F93012756E008BB279520F4515034
:1005500021F4220FF9CF012756E000003B5A08BBD7
:10056000D0F2279528F4515029F4220F0000F9CF3A
:10057000012756E0279508BB20F4515021F4220FA3
:10058000F9CF012756E02991332308BB21F60C7FD0
:100590001091B100110FC651D04008BB11F010935B
:1005A000AA0010E41ABF016017B31C7F402F4C7FD4
:1005B0005F9100C000C008BB17BB48BB7CCF582F61
:1005C00048E080E057FD18C0C398550F880FB499D4
:1005D0008F5FC59A32B72091CF0092B7931B9217C5
:1005E000E0F3C59832B72091CF0092B7931B9217D2
:1005F000E0F3415039F70895C39AE7CF8FB9779B5D
:10060000FECF8FB10895DC01CB0121E1B695A7950E
:10061000979587952A95D1F72091CE002817D9F084
:100620008093CE00E091CB00F091CC008DE4099551
:10063000E091CB00F091CC0080E00995E091CB00F7
:10064000F091CC008091CE000995E091CB00F09123
:10065000CC0080E0099408958091CD008DB98091FF
:10066000CA008EB908958823A1F08830D0F52FED07
:1006700032E03093CC002093CB008430F1F008F1CD
:100680008630C1F030F18730A1F483E08093CF0051
:1006900008958EEF92E09093CC008093CB0081E0A0
:1006A0008093CF0082E58093CD0081E08093CA00E3
:1006B000089580EC8093CF00089588E18093CF0067
:1006C0000895823051F08330A1F780E38093CF000A
:1006D00008958CE08093CF00089580E68093CF004A
:1006E00008952EEF32E03093CC002093CB0010928F
:1006F000CA0091E09093CF00893059F070F08B30B0
:1007000021F08C3079F69093CA0081E58093CD007A
:10071000089582E58093CD000895883019F683E529
:100720008093CD00089522B79091CF0082B7821BAD
:100730008917E0F3089587B38C6287BBC298C59888
:1007400022B79091CF0082B7821B8917E0F3C29A3B
:1007500022B79091CF0082B7821B8917E0F3C2982D
:100760008091CB009091CC008E5F924019F0109256
:10077000CE0008958091CD008DB98091CA008EB9C8
:100780001092CE00089587B3837D87BB88B3837DA5
:1007900088BB1DB80895CF93DF93C0E2E091CB00F2
:1007A000F091CC008CEA0995E091CB00F091CC005F
:1007B00083E50995E091CB00F091CC0080E00995AC
:1007C000D82FE091CB00F091CC0080E00995D33593
:1007D00061F11DB822B79091CF0082B7821B8917B3
:1007E000E0F3C29A22B79091CF0082B7821B89179B
:1007F000E0F3C29822B79091CF0082B7821B89178D
:10080000E0F38091CB009091CC008E5F924031F06C
:10081000C15021F681E0DF91CF9108958091CD0004
:100820008DB98091CA008EB9F3CF80E0DF91CF916E
:100830000895CF92DF92EF92FF926B017C01E3DE8D
:100840008C2D8170880F880F880FE091CB00F0917C
:10085000CC0080620995D701C60129E0B695A7951D
:10086000979587952A95D1F7E091CB00F091CC0030
:100870000995D701C601B695A79597958795E091FB
:10088000CB00F091CC000995E091CB00F091CC0029
:1008900080E0FF90EF90DF90CF900994CF92DF92AD
:1008A000EF92FF920F931F93CF93DF931F92CDB7D9
:1008B000DEB76B017C01142F2983A5DE9C2D91707E
:1008C000892F880F880F880FE091CB00F091CC0022
:1008D00080640995D701C60129E0B695A79597953B
:1008E00087952A95D1F7E091CB00F091CC0009953E
:1008F000D701C601B695A79597958795E091CB004E
:10090000F091CC000995E091CB00F091CC00812FC3
:10091000099529812223A9F01F3789F002B71EE12A
:10092000C701B60186DF8F3761F482B7801B8D3334
:1009300010F002B711501111F3CF81E003C08FE026
:10094000B3D080E00F90DF91CF911F910F91FF9076
:10095000EF90DF90CF900895CF92DF92EF92FF92C9
:100960000F931F93CF93DF931F92CDB7DEB76B0129
:100970007C01498348DEE091CB00F091CC008CE40F
:100980000995D701C60129E0B695A7959795879552
:100990002A95D1F7E091CB00F091CC000995D701D1
:1009A000C601B695A79597958795E091CB00F091F4
:1009B000CC000995E091CB00F091CC0080E0099546
:1009C00049814F3FE1F002B71EE1C701B60131DFB7
:1009D0008F3F99F482B7801B8D3310F002B711500E
:1009E0001111F3CF81E00F90DF91CF911F910F9103
:1009F000FF90EF90DF90CF90089580E0F4CF8FE0EC
:100A000053D080E0F0CF1F93CF93DF931F92CDB7E9
:100A1000DEB7182FE091CB00F091CC0080EA9983EB
:100A20000995E091CB00F091CC009981892F09952F
:100A3000E091CB00F091CC00812F0995E091CB00A3
:100A4000F091CC0080E00F90DF91CF911F9109943D
:100A50001F93CF93DF9300D0CDB7DEB7182FE0916F
:100A6000CB00F091CC0080EC6A8399830995E091EA
:100A7000CB00F091CC009981892F0995E091CB00B2
:100A8000F091CC00812F0995E091CB00F091CC0042
:100A90006A81862F09958EE107D080E00F900F9034
:100AA000DF91CF911F910895882349F030E022B75C
:100AB00092B7921B9C33E0F33F5F3813F8CF089551
:100AC000BD9ABB98C39A50E217D05A95E9F708959A
:100AD000AC0188E605D0842F03D089E601D0852FAC
:100AE0000FD028E030E0382780FB869506D02A9585
:100AF000D1F730FB02D000D06894BB98C39A16F0AF
:100B0000C398BB9AE091D000F091D1003197F0F7F3
:100B1000C59AE6B3E3FBE091D000F091D1003197A4
:100B2000F0F7C598089520ECE7DF46F42A95E1F741
:100B300080E02AE1E5DF2A95E9F7DECF28E030E022
:100B4000DBDF869587F938272A95D1F7D5DF27F996
:100B5000322772F3D1DFD0CFDB01742FB9DF84E20B
:100B6000BFDFE1DF8D937A95D1F70895DB01742F14
:100B7000AFDF83EFB5DF8DE1B3DF84E6B1DF8D91C9
:100B8000AFDF82E7ADDFCFDF8078D9F77A9589F7DD
:100B90000895CF93DF93EC0199819130A1F19230C8
:100BA00009F4CBC0933009F4CCC09430B1F1973044
:100BB00009F49EC0953009F426C1963009F45EC050
:100BC000983009F4F5C0993009F422C19A3009F43B
:100BD00030C19B3009F455C19C3009F4D4C09D301C
:100BE00009F485C19E3009F487C19F3009F428C1FA
:100BF000903109F45BC19F3709F482C19E3709F433
:100C00008AC180E02EC09A9935C085E02CDD109213
:100C10009400A99890DD80E024C080919400811117
:100C200012C08B8190E0982F88272A81822B092E71
:100C3000000CAA0BBB0B8093900090939100A093A3
:100C40009200B09393008F8190E0982F88272E8197
:100C5000822B90938F0080938E0082E08093960089
:100C60008FEF27E930E03093AF002093AE00DF91A3
:100C7000CF91089580919500F6DCC9CF80919400C2
:100C8000811112C08B8190E0982F88272A81822BB6
:100C9000092E000CAA0BBB0B80939000909391003F
:100CA000A0939200B09393003C812D81822F8F708E
:100CB00080938B00822F807F40E1849FC0011124AC
:100CC000830F911D90938D0080938C0020FD809365
:100CD0008A008F8190E0982F88272E81822B909315
:100CE0008F0080938E0081E0809396008FEFB9CFC4
:100CF00080919400811112C08B8190E0982F8827F9
:100D00002A81822B092E000CAA0BBB0B809390002A
:100D100090939100A0939200B09393008F8190E004
:100D2000982F88272E81822B90938F0080938E009E
:100D300083E0809396008FEF94CF25DDA99A80E021
:100D400090CFE091CB00F091CC008A8109958093FF
:100D50009700E091CB00F091CC008B8109958093B6
:100D60009800E091CB00F091CC008C8109958093A4
:100D70009900E091CB00F091CC008D810995809392
:100D80009A0084E06ECF80ECABDE80E0A9DE8AE0E2
:100D90008BDEC29A85E088DEC29885E085DE87B367
:100DA000837D87BB88B3837D88BBA99A80E059CFB8
:100DB00080919400811112C08B8190E0982F882738
:100DC0002A81822B092E000CAA0BBB0B809390006A
:100DD00090939100A0939200B093930010928D0095
:100DE00010928C0010928B008F8190E0982F8827B2
:100DF0002E81822B90938F0080938E0084E08093CD
:100E000096008FEF2ECFC7DC8093970081E029CF2B
:100E100081E0809394008A819B81AC81BD81809325
:100E2000900090939100A0939200B093930080E083
:100E300018CF8A81809395001092970081E011CF9E
:100E40008B8190E0982F88272A81822B092E000C15
:100E5000AA0BBB0B8093900090939100A0939200FB
:100E6000B09393008F8190E0982F88272E81822B5A
:100E700090938F0080938E0085E0809396008FEF93
:100E8000F0CE8B8190E0982F88272A81822B909337
:100E9000D1008093D000C29ABA9A83E005DEC2984E
:100EA000A99880E101DE0CDE80E0DBCE8B8190E052
:100EB000982F88272A81822B092E000CAA0BBB0BA6
:100EC0008093900090939100A0939200B093930030
:100ED0008F8190E0982F88272E81822B90938F000E
:100EE00080938E0086E0809396008FEFBACE1BDE53
:100EF0008093970081E0B5CE8A81F2DD80E0B1CEAB
:100F000081E08093970010929800109299001092BF
:100F10009A0084E0A6CE8C819D81049711F080E038
:100F2000A6CE82E690E09093AF008093AE0088E278
:100F30009ECEFF920F931F93CF93DF93582F792F5D
:100F4000F62E209196003EEF320F323050F02530D1
:100F500009F452C08FEFDF91CF911F910F91FF9055
:100F60000895662309F43FC080919000909191000C
:100F7000A0919200B0919300052F172F3FEF360FED
:100F8000E801C30FD11D1DC03EDDF80180838091B3
:100F9000900090919100A0919200B09193000196E1
:100FA000A11DB11D8093900090939100A093920099
:100FB000B09393000C171D0761F0209196000F5F0E
:100FC0001F4F223009F7BC01CD0133DCF8018083CB
:100FD000DECFF7E0FF1538F48F2DDF91CF911F9111
:100FE0000F91FF900895109296008F2DDF91CF9171
:100FF0001F910F91FF900895462F682F80919000C8
:1010000090919100A9DD8091900090919100A09124
:101010009200B09193008F0D911DA11DB11D809381
:10102000900090939100A0939200B09393008F2D25
:1010300092CFFF920F931F93CF93DF93382F792F87
:10104000162F20919600213061F0243051F0263087
:1010500009F494C08FEFDF91CF911F910F91FF9012
:101060000895112309F482C080919000909191001D
:10107000A0919200B0919300C32FD72F1150AE01D1
:10108000410F511D8A01F12C4DC020918C003091EF
:101090008D00232B09F04FC021E04881BC01CD0118
:1010A000FDDB20918E0030918F002150310930936B
:1010B0008F0020938E00232BE1F4109296008091F4
:1010C0008B0081FF35C080918A0090E020918C00D8
:1010D00030918D008217930759F1609190007091C3
:1010E00091008091920090919300488135DCFF241B
:1010F000F3948091900090919100A0919200B09112
:1011000093000196A11DB11D8093900090939100D2
:10111000A0939200B0939300C017D10741F12091A2
:1011200096002196213009F4B0CF688191DCB9CFC7
:10113000FF24F394DECF20E04881BC01CD01AEDB7B
:1011400080918A00815080938A008111AACF60919A
:10115000900070919100809192009091930048814D
:10116000FBDB80918C0080938A009BCFF12C8F2D2C
:10117000DF91CF911F910F91FF900895462F682F17
:101180008091900090919100F1DC8091900090917D
:101190009100A0919200B0919300810F911DA11D2B
:1011A000B11D8093900090939100A0939200B09312
:1011B000930080918E0090918F00811B91099093F4
:1011C0008F0080938E00892B21F41092960081E08D
:1011D00042CF80E040CF12BA18BA8BEF81BB8FEFBD
:1011E00087BB17BA83E084BB9EEF95BB83BF9AD8B9
:0C11F000789467D766D7FDCFF894FFCF46
:1011FC00FF5A28000000000104000100000000005C
:10120C000000000157494E555342000000000000F9
:0A121C0000000000000000000000C8
:00000001FF
